:020000040800F2
:1000000000200020051F0008913800089B380008D8
:1000100000000000000000000000000000000000E0
:10002000000000000000000000000000A1380008EF
:100030000000000000000000AB380008B5380008E0
:10004000511F0008511F0008511F0008511F0008D0
:10005000511F0008511F0008511F0008511F0008C0
:10006000511F0008C9380008511F0008511F00081F
:10007000511F0008511F0008511F0008511F0008A0
:10008000511F0008511F000800000000511F000808
:10009000511F0008511F0008511F0008511F000880
:1000A000E138000811390008511F000829390008FB
:1000B000511F000800000000511F00080000000050
:1000C0005FF808F180B500AF194B1A4A1A60184B57
:1000D00000225A60164B00229A60154BC0229200F3
:1000E000DA60134B00221A61114B00225A61104B47
:1000F00000229A610E4B00221A620D4B00225A62B6
:100100000B4B00229A620A4B0722DA62084B00224C
:100110001A63074B00225A63054B180002F0B6FA27
:10012000031E01D001F0EBFEC046BD4680BDC046B7
:10013000040000200030014080B588B000AF786036
:100140007B681B682A4A93424DD12A4B294A9269FF
:10015000802149010A439A61264B9A6980235B01F9
:100160001340BB60BB680C23FB18802212021A608C
:100170000C23FB1802225A600C23FB1800229A6001
:100180000C23FB180322DA600C23FB1800221A61EF
:100190000C23FA189023DB051100180004F0B0F9C5
:1001A0000C23FB1838221A600C23FB1802225A6019
:1001B0000C23FB1800229A600C23FB180322DA6040
:1001C0000C23FB1800221A610C23FB180A4A1900A1
:1001D000100004F095F900220121192002F0FCF929
:1001E000192002F00FFAC046BD4608B080BDC046D7
:1001F00000300140001002400004004880B500AF0C
:10020000174B184A1A60164B174A5A60144B0022B3
:100210009A60134B0122DA60114B00221A61104BD5
:1002200000225A610E4B00229A610D4B0022DA61C6
:100230000B4B00221A620A4B180002F0ADFB031EA2
:1002400001D001F05CFE064B0021180003F090FA8B
:10025000031E01D001F053FEC046BD4680BDC0461E
:1002600068000020005800405D3E302080B588B016
:1002700000AF78607B681B68194A93422CD10C232D
:10028000FB18C0221A600C23FB1812225A600C23A0
:10029000FB1801229A600C23FB180322DA600C235E
:1002A000FB18104A1900100004F02AF90E4B0E4AF0
:1002B000D2698021C9030A43DA610B4BDA698023D2
:1002C000DB031340BB60BB6800220121182002F051
:1002D00083F9182002F096F9C046BD4608B080BDEB
:1002E00000580040001400480010024080B586B05D
:1002F00000AF786000233B617B681B6801221340DC
:1003000000D18DE0C34B5B680C221340042B0ED050
:10031000C04B5B680C221340082B16D1BD4B5A68AA
:1003200080235B021A4080235B029A420DD1B94BB5
:100330001A6880239B02134000D170E07B685B68E1
:10034000002B00D06BE00123B5E27B685B68012BDA
:1003500007D1B04BAF4A1268802149020A431A60A4
:100360002FE07B685B68002B0CD1AA4BA94A12686E
:10037000A9490A401A60A74BA64A1268A7490A4031
:100380001A601EE07B685B68052B0ED1A14BA14A69
:1003900012688021C9020A431A609E4B9D4A126866
:1003A000802149020A431A600BE09A4B994A12686D
:1003B00099490A401A60974B964A126897490A4031
:1003C0001A607B685B68002B14D000F009FE030004
:1003D0003B6108E000F004FE02003B69D31A642B85
:1003E00001D9032367E28B4B1A6880239B021340D9
:1003F000F0D015E000F0F4FD03003B6108E000F0F0
:10040000EFFD02003B69D31A642B01D9032352E2AA
:10041000804B1A6880239B021340F0D100E0C04655
:100420007B681B680222134000D169E0794B5B684E
:100430000C2213400BD0774B5B680C221340082B27
:100440001CD1744B5A6880235B02134016D1714B48
:100450001B680222134005D07B68DB68012B01D0AA
:10046000012328E26B4A6B4B1B68F8218B43190070
:100470007B681B69DB000B43136041E07B68DB6832
:10048000002B24D0634B634A126801210A431A608F
:1004900000F0A6FD03003B6108E000F0A1FD0200B2
:1004A0003B69D31A022B01D9032304E2594B1B6881
:1004B00002221340F1D0574A564B1B68F8218B4358
:1004C00019007B681B69DB000B43136018E0514B7C
:1004D000504A126801218A431A6000F081FD03002E
:1004E0003B6108E000F07CFD02003B69D31A022B5F
:1004F00001D90323DFE1474B1B6802221340F1D1EE
:100500007B681B680822134036D07B68DB69002BB0
:1005100019D0404B3F4A526A01210A435A6200F007
:100520005FFD03003B6108E000F05AFD02003B69FB
:10053000D31A022B01D90323BDE1364B5B6A022299
:100540001340F1D018E0334B324A526A01218A43FA
:100550005A6200F045FD03003B6108E000F040FDF9
:1005600002003B69D31A022B01D90323A3E1294BD3
:100570005B6A02221340F1D17B681B68042213409E
:1005800000D1B5E01723FB1800221A70214BDA695D
:1005900080235B05134011D11E4B1E4AD269802176
:1005A00049050A43DA611B4BDA6980235B05134076
:1005B000FB60FB681723FB1801221A70184B1A689E
:1005C00080235B0013401AD1154B154A1268802115
:1005D00049000A431A6000F003FD03003B6108E094
:1005E00000F0FEFC02003B69D31A642B01D90323FF
:1005F00061E10B4B1A6880235B001340F0D07B68ED
:100600009B68012B0ED1034B024A126A01210A4357
:100610001A6235E000100240FFFFFEFFFFFFFBFF04
:10062000007000407B689B68002B0CD1A44BA44A4F
:10063000126A01218A431A62A14BA14A126A04215B
:100640008A431A621CE07B689B68052B0CD19C4B8B
:100650009B4A126A04210A431A62994B984A126A09
:1006600001210A431A620BE0954B954A126A012157
:100670008A431A62924B924A126A04218A431A628E
:100680007B689B68002B14D000F0AAFC03003B6140
:1006900009E000F0A5FC02003B69D31A894A9342A5
:1006A00001D9032307E1864B1B6A02221340F0D0D5
:1006B00013E000F095FC03003B6109E000F090FCC2
:1006C00002003B69D31A7F4A934201D90323F2E027
:1006D0007B4B1B6A02221340F0D11723FB181B78B7
:1006E000012B05D1764B764AD26977490A40DA6107
:1006F0007B681B681022134063D07B685B69012B09
:100700002AD16F4B6E4A526B04210A435A636C4BD9
:100710006B4A526B01210A435A6300F061FC0300EB
:100720003B6108E000F05CFC02003B69D31A022B3D
:1007300001D90323BFE0624B5B6B02221340F1D06F
:100740005F4A5F4B5B6BF8218B4319007B689B69A9
:10075000DB000B43536334E07B685B69053311D1E5
:10076000574B574A526B04218A435A63544A544B9D
:100770005B6BF8218B4319007B689B69DB000B43A3
:1007800053631EE04E4B4E4A526B04210A435A6398
:100790004B4B4B4A526B01218A435A6300F020FCB9
:1007A00003003B6108E000F01BFC02003B69D31A28
:1007B000022B01D903237EE0414B5B6B02221340E5
:1007C000F1D17B681B6A002B00D173E03C4B5B6866
:1007D0000C221340082B00D16AE07B681B6A022BB5
:1007E0004BD1374B364A126838490A401A6000F03C
:1007F000F7FB03003B6108E000F0F2FB02003B69FD
:10080000D31A022B01D9032355E02D4B1A688023FC
:100810009B041340F0D12A4A294BDB6A0F218B43FA
:1008200019007B68DB6A0B43D362254A244B5B6863
:10083000274919407B68986A7B685B6A03430B43CE
:1008400053601F4B1E4A1268802149040A431A60F4
:1008500000F0C6FB03003B6108E000F0C1FB0200B2
:100860003B69D31A022B01D9032324E0144B1A68E5
:1008700080239B041340F0D01CE0114B104A1268F7
:1008800012490A401A6000F0ABFB03003B6108E02C
:1008900000F0A6FB02003B69D31A022B01D9032307
:1008A00009E0074B1A6880239B041340F0D101E054
:1008B000012300E000231800BD4606B080BDC046FD
:1008C0000010024088130000FFFFFFEFFFFFFFFE54
:1008D000FFFFC2FF80B584B000AF786039600023AD
:1008E000FB60694B1B6801221A403B689A4211D297
:1008F000654B654A126801218A4311003A680A4330
:100900001A60614B1B6801221A403B689A4201D071
:100910000123B5E07B681B680222134009D05B4AC3
:100920005A4B5B68F0218B4319007B689B680B4333
:1009300053607B681B680122134000D167E07B682D
:100940005B68012B07D1514B1A6880239B0213402F
:1009500014D1012394E07B685B68022B07D14B4BD9
:100960001A6880239B04134008D1012388E0474B79
:100970001B680222134001D1012381E0434A434B0B
:100980005B6803218B4319007B685B680B435360F2
:1009900000F026FB0300FB607B685B68012B11D134
:1009A00009E000F01DFB0200FB68D31A384A9342AD
:1009B00001D9032364E0354B5B680C221340042B00
:1009C000EFD124E07B685B68022B1BD109E000F0CB
:1009D00007FB0200FB68D31A2D4A934201D9032377
:1009E0004EE02A4B5B680C221340082BEFD10EE03F
:1009F00000F0F6FA0200FB68D31A254A934201D9A7
:100A000003233DE0214B5B680C221340F0D11E4BC9
:100A10001B6801221A403B689A4211D91A4B1A4AA4
:100A2000126801218A4311003A680A431A60164B82
:100A30001B6801221A403B689A4201D001231FE043
:100A40007B681B680422134008D0104A0F4B5B6878
:100A5000104919407B68DB680B43536000F020F8B5
:100A600001000A4B5B681B090F2213400A4AD35C42
:100A70000A00DA40094B1A60002000F089FA0023CE
:100A80001800BD4604B080BD0020024000100240A6
:100A900088130000FFF8FFFF044B0008000000204F
:100AA00080B58EB000AF1423FA182A4B100019003D
:100AB00010231A0003F0D4FF3A1D274B1000190031
:100AC00010231A0003F0CCFF0023FB620023BB625B
:100AD00000237B6300237B6200233B631F4B5B6827
:100AE000FB62FB6A0C221340042B02D0082B03D0BC
:100AF00027E01B4B3B6327E0FB6A9B0C0F22134054
:100B00001422BA18D35C7B62144BDB6A0F221340A9
:100B10003A1DD35CBB62FA6A80235B02134009D0A2
:100B2000B96A0F4803F010FF03001A007B6A5343B1
:100B30007B6303E07B6A0B4A53437B637B6B3B63C2
:100B400002E0074B3B63C0463B6B1800BD460EB04E
:100B500080BDC046E44A0008F44A00080010024084
:100B600000127A0000093D0080B500AF024B1B68FF
:100B70001800BD4680BDC0460000002080B500AF13
:100B8000FFF7F2FF0100064B5B681B0A07221340C8
:100B9000044AD35CD9400B001800BD4680BDC04656
:100BA00000100240144B000880B594B000AF564BC3
:100BB000564A1A60544B0F225A60534B00229A60D7
:100BC000514B0022DA60504B00221A614E4B00223A
:100BD0005A614D4B80229A614B4B180002F062FF24
:100BE000031E01D001F08BF94023FB188022520133
:100BF0001A604023FA18444B1100180003F06AF8F9
:100C0000031E01D001F07BF93F4B180002F076FF84
:100C1000031E01D001F073F93823FB1800221A607B
:100C20003823FB1800225A603823FA18364B11007B
:100C3000180002F085FE031E01D001F060F91C23AC
:100C4000FB1860221A601C23FB1800225A601C2328
:100C5000FB1800229A601C23FB180022DA601C2378
:100C6000FB1800221A611C23FB1800225A611C2366
:100C7000FB1800229A611C23F918234B002218004C
:100C800002F070FF031E01D001F039F91C23F9189E
:100C90001D4B0422180002F065FF031E01D001F075
:100CA0002EF91C23F918184B0822180002F05AFFDD
:100CB000031E01D001F023F93B0000221A603B0023
:100CC00000225A603B0000229A603B000022DA605A
:100CD0003B0000221A613B00802292015A613B00D6
:100CE00000229A613A00084B1100180002F06CFED5
:100CF000031E01D001F003F9034B180000F0C6F801
:100D0000C046BD4614B080BDF4000020002C014058
:100D100080B58EB000AF404B404A1A603E4B404A0F
:100D20005A603D4B00229A603B4B0022DA603A4BFE
:100D300000221A61384B80229A61374B180002F06A
:100D4000B1FE031E01D001F0DAF82823FB1880223F
:100D500052011A602823FA182F4B1100180002F0D4
:100D6000B9FF031E01D001F0CAF82B4B180002F0A6
:100D7000C5FE031E01D001F0C2F82023FB1800229B
:100D80001A602023FB1800225A602023FA18224BF5
:100D90001100180002F0D4FD031E01D001F0AFF8DD
:100DA0003B1D60221A603B1D00225A603B1D002241
:100DB0009A603B1D00221A61391D174B0022180052
:100DC00002F0D0FE031E01D001F099F8391D124B3C
:100DD0000422180002F0C6FE031E01D001F08FF8B5
:100DE000391D0D4B0822180002F0BCFE031E01D075
:100DF00001F085F8391D084B0C22180002F0B2FEF4
:100E0000031E01D001F07BF8034B180000F03EF800
:100E1000C046BD460EB080BDB400002000040040B6
:100E20003F1F000080B584B000AF78607B681B680E
:100E3000134A93420ED1134B124A92698021090141
:100E40000A439A610F4B9A6980231B011340FB6090
:100E5000FB6810E07B681B680B4A93420BD1094B7F
:100E6000084AD26902210A43DA61064BDB69022291
:100E70001340BB60BB68C046BD4604B080BDC046E1
:100E8000002C0140001002400004004080B588B0F2
:100E900000AF78607B681B68304A93421DD10C23F9
:100EA000FB18E022D2001A600C23FB1802225A60C1
:100EB0000C23FB1800229A600C23FB180022DA6036
:100EC0000C23FB1802221A610C23FA189023DB056D
:100ED0001100180003F014FB3BE07B681B68204AFC
:100EE000934236D10C23FB18C0221A600C23FB1846
:100EF00002225A600C23FB1800229A600C23FB1874
:100F00000022DA600C23FB1801221A610C23FA1864
:100F10009023DB051100180003F0F2FA0C23FB18F4
:100F200003221A600C23FB1802225A600C23FB18C0
:100F300000229A600C23FB180022DA600C23FB18B5
:100F400001221A610C23FB18064A1900100003F055
:100F5000D7FAC046BD4608B080BDC046002C01404F
:100F6000000400400004004880B500AF074B074A6A
:100F7000126810210A431A60002000F009F802F0FC
:100F8000E5FA00231800BD4680BDC046002002409F
:100F900080B582B000AF7860FFF7E6FD0200FA236B
:100FA0009900100003F0D0FC0300180001F03AFB98
:100FB000796801235B420022180001F00DFB002339
:100FC0001800BD4602B080BD80B500AF034B1B6862
:100FD0005A1C024B1A60C046BD4680BD3401002039
:100FE00080B500AF024B1B681800BD4680BDC046EF
:100FF0003401002080B584B000AF78600F23FB1867
:1010000000221A700023BB607B68002B01D10123F2
:1010100024E17B685B6C002B0AD17B6800229A6418
:101020007B684022002199547B68180002F040FB45
:101030007B685B6C1022134000D002E10F23FB1889
:101040001B78002B00D0FCE07B681B689B680422A7
:10105000134000D0F5E07B685B6C824A13400222AB
:101060001A437B685A647B681B689B6803221340A1
:10107000012B12D17B681B681B6801221340012BD6
:1010800009D07B681B68DA6880231B021A40802322
:101090001B029A4201D1012300E00023002B16D14C
:1010A0007B681B687A681268D26818218A4311002D
:1010B0007A6892680A43DA607B681B687A6812680B
:1010C0001269920091087A6852680A431A617B6833
:1010D0001B687A681268D26863490A40DA607B68E4
:1010E0009B699A037B68DB69DB031A437B681B6A95
:1010F0005B031A437B685B6B012B02D080235B018F
:1011000000E000231A437B68DB681A437B681B6995
:10111000022B01D1042300E000231A437B681B6BE0
:101120005B001343BA681343BB607B685B6A012BA7
:1011300015D17B681B6A002B05D1BB688022520247
:101140001343BB600BE07B685B6C20221A437B6817
:101150005A647B689B6C01221A437B689A647B68A3
:101160009A6AC223FF339A4207D07B689A6A7B68E7
:10117000DB6A1343BA681343BB607B681B687A68F9
:101180001268D168BA680A43DA607B689A6B802378
:101190005B059A421BD07B689B6B012B17D07B6849
:1011A0009B6B022B13D07B689B6B032B0FD07B6850
:1011B0009B6B042B0BD07B689B6B052B07D07B684C
:1011C0009B6B062B03D07B689B6B072B12D17B6834
:1011D0001B687A681268526907218A435A617B68E2
:1011E0001B687A68126851697A68926B072002401E
:1011F0000A435A617B681B68DB681C4A1A40BB685B
:101200009A420BD17B6800229A647B685B6C032254
:10121000934301221A437B685A641CE07B685B6C31
:101220001222934310221A437B685A647B689B6C9A
:1012300001221A437B689A640F23FB1801221A705B
:1012400009E07B685B6C10221A437B685A640F23A9
:10125000FB1801221A700F23FB181B781800BD46DB
:1012600004B080BDFDFEFFFF1902FEFFE7FF3F83D4
:1012700080B584B000AF786039600F23FB1800227E
:101280001A700023BB607B689A6B80235B059A42CF
:1012900011D07B689B6B012B0DD07B689B6B022B65
:1012A00009D07B689B6B032B05D07B689B6B042B61
:1012B00001D07B689B6B7B6840229B5C012B01D13A
:1012C0000223BCE07B684022012199547B681B68A3
:1012D0009B680422134000D0A0E03B685B685A4A38
:1012E000934200D178E07B681B687A681268916A43
:1012F0003A6812680120904002000A439A627B68B3
:101300009A6B80235B059A4237D07B689B6B012BDD
:1013100033D07B689B6B022B2FD07B689B6B032B9E
:101320002BD07B689B6B042B27D07B689B6B052B9A
:1013300023D07B689B6B062B1FD07B689B6B072B96
:101340001BD03B689A687B681B685B6907210B4070
:101350009A4212D07B681B687A681268526907212A
:101360008A435A617B681B687A68126851693A68D7
:101370009268072002400A435A613B681B68102BA1
:1013800003D03B681B68112B52D1304A2F4B196890
:101390003B681B68102B02D180231B0401E08023D3
:1013A000DB030B4313603B681B68102B40D1284BB9
:1013B0001B682849180003F0C7FA03001A0013003D
:1013C0009B009B185B00BB6002E0BB68013BBB60FD
:1013D000BB68002BF9D12BE07B681B687A68126828
:1013E000916A3A681268012090400200D2430A4094
:1013F0009A623B681B68102B03D03B681B68112B5B
:1014000016D1124A114B19683B681B68102B01D189
:10141000114B00E0114B0B40136009E07B685B6CE3
:1014200020221A437B685A640F23FB1801221A708A
:101430007B684022002199540F23FB181B78180069
:10144000BD4604B080BDC046011000000827014021
:101450000000002040420F00FFFF7FFFFFFFBFFFA3
:1014600080B582B000AF78607B68002B01D101238A
:1014700047E07B6869229B5CDBB2002B07D17B686D
:101480006822002199547B68180003F019FA7B68E0
:101490006922242199547B681B687A681268126853
:1014A00001218A431A607B68180000F043F90300A9
:1014B000012B01D1012324E07B685B6A002B03D060
:1014C0007B68180000F0ACFA7B681B687A681268C9
:1014D00052680E490A405A607B681B687A68126835
:1014E000926808218A439A607B681B687A68126850
:1014F000126801210A431A607B68180000F03CFB67
:1015000003001800BD4602B080BDC046FFF7FFFFD4
:1015100080B586B000AF78607B681B68DB697B6153
:101520007B681B681B683B617B690F221340FB6073
:10153000FB68002B0CD17B692022134008D03B694B
:101540002022134004D07B68180000F0D3FBD3E0C6
:101550007B681B689B68BB60FB68002B00D1AFE019
:10156000BB680122134005D13A6990235B00134008
:1015700000D1A5E07B69012213400ED03A69802397
:101580005B00134009D07B681B6801221A627B68EC
:10159000DB6E01221A437B68DA667B690222134004
:1015A0000DD0BB680122134009D07B681B68022262
:1015B0001A627B68DB6E04221A437B68DA667B69F9
:1015C000042213400DD0BB680122134009D07B6870
:1015D0001B6804221A627B68DB6E02221A437B6856
:1015E000DA667B690822134011D03B692022134040
:1015F00003D1BB680122134009D07B681B68082215
:101600001A627B68DB6E08221A437B68DA667B68A5
:10161000DB6E002B00D16EE07B692022134007D0E7
:101620003B692022134003D07B68180000F062FB66
:101630007B68DB6E0822134005D17B681B689B68C2
:101640004022134032D07B68180000F0ADFA7B686E
:101650001B689B684022134023D07B681B687A6814
:101660001268926840218A439A607B685B6E002B07
:1016700012D07B685B6E224A5A637B685B6E1800EF
:1016800000F0FEFD031E19D07B685B6E5A6B7B6811
:101690005B6E1800904711E07B68180000F042F87C
:1016A0000CE07B68180000F03DF807E07B6818004C
:1016B00000F038F87B680022DA661CE0C0461AE0C9
:1016C0007B698022134008D03B698022134004D0FC
:1016D0007B68180000F09DFA0EE07B694022134001
:1016E0000AD03B694022134006D07B68180000F006
:1016F000E7FAC04600E0C046BD4606B080BDC04621
:10170000E51B000880B582B000AF7860C046BD46DA
:1017100002B080BD80B582B000AF7860C046BD46E3
:1017200002B080BD80B582B000AF7860C046BD46D3
:1017300002B080BD90B587B000AF78600023FB6039
:101740001723FB1810221A700A23FB1800221A8094
:101750001423FB1800221A801323FB1800221A708E
:101760007B689A687B681B691A437B685B691A43CC
:101770007B68DB691343FB607B681B687A681268CF
:1017800012689F491140FA680A431A607B681B6817
:101790007A68126852689B4911407A68D2680A4395
:1017A0005A607B689A697B681B6A1343FB607B689D
:1017B0001B687A681268926893491140FA680A4374
:1017C0009A607B681B68914A934225D1904B1B6BB2
:1017D00003221340012B0FD004D3022B11D0032B73
:1017E00005D013E01723FB1800221A7022E01723FC
:1017F000FB1802221A701DE01723FB1804221A702E
:1018000018E01723FB1808221A7013E01723FB189F
:1018100010221A70C0460DE07B681B687D4A934217
:1018200004D11723FB1800221A7003E01723FB18BA
:1018300010221A707B68DA6980231B029A4200D05A
:101840007BE01723FB181B78022B1CD002DC002B3B
:1018500005D04FE0042B27D0082B39D04AE0FFF702
:101860008DF903005A007B685B685B08D2187B68BF
:101870005B681900100003F067F803001A001423D6
:10188000FB181A803BE07B685B685B08624A9A1829
:101890007B685B681900100003F056F803001A001B
:1018A0001423FB181A802AE0FFF7FAF803005A0005
:1018B0007B685B685B08D2187B685B681900100066
:1018C00003F042F803001A001423FB181A8016E0F4
:1018D0007B685B685B08802252029A187B685B68B1
:1018E0001900100003F030F803001A001423FB184D
:1018F0001A8004E01323FB1801221A70C0460A2341
:10190000FB181422BA1812880F218A431A80142354
:10191000FB181B885B109BB20722134099B20A2365
:10192000FB180A22BA1812880A431A807B681B68BF
:101930000A22BA181288DA605BE01723FB181B78BA
:10194000022B1BD002DC002B05D04DE0042B26D04F
:10195000082B37D048E07B681C68FFF70FF90200BE
:101960007B685B685B08D2187B685B6819001000B5
:1019700002F0EAFF03009BB2E3603AE07B681C6878
:101980007B685B685B08254A9A187B685B6819006E
:10199000100002F0D9FF03009BB2E36029E07B68EE
:1019A0001C68FFF77DF802007B685B685B08D21853
:1019B0007B685B681900100002F0C6FF03009BB251
:1019C000E36016E07B681C687B685B685B088022CC
:1019D00012029A187B685B681900100002F0B4FFCD
:1019E00003009BB2E36004E01323FB1801221A708A
:1019F000C0461323FB181B781800BD4607B090BDE6
:101A0000F369FFFFFFCFFFFFFFF4FFFF0038014046
:101A100000100240004400400024F40000127A004C
:101A200080B582B000AF78607B685B6A01221340AA
:101A30000AD07B681B687A68126852684549114071
:101A40007A68926A0A435A607B685B6A0222134092
:101A50000AD07B681B687A68126852683E49114058
:101A60007A68D26A0A435A607B685B6A0422134030
:101A70000AD07B681B687A6812685268374911403F
:101A80007A68126B0A435A607B685B6A08221340CB
:101A90000AD07B681B687A68126852683049114026
:101AA0007A68526B0A435A607B685B6A1022134063
:101AB0000AD07B681B687A681268926829491140CD
:101AC0007A68926B0A439A607B685B6A20221340B3
:101AD0000AD07B681B687A681268926822491140B4
:101AE0007A68D26B0A439A607B685B6A4022134033
:101AF0001BD07B681B687A68126852681B491140CA
:101B00007A68126C0A435A607B681A6C80235B0304
:101B10009A420AD17B681B687A6812685268144935
:101B200011407A68526C0A435A607B685B6A802273
:101B300013400AD07B681B687A68126852680D49A6
:101B400011407A68926C0A435A60C046BD4602B0A2
:101B500080BDC046FFFFFDFFFFFFFEFFFFFFFBFF55
:101B6000FF7FFFFFFFEFFFFFFFDFFFFFFFFFEFFF45
:101B7000FFFF9FFFFFFFF7FF80B582B000AF7860E7
:101B80007B680022DA667B686922202199547B6891
:101B90006A22202199547B686822002199540023ED
:101BA0001800BD4602B080BD80B582B000AF78603D
:101BB0007B681B687A681268126809490A401A60D3
:101BC0007B681B687A681268926801218A439A6070
:101BD0007B686A2220219954C046BD4602B080BD70
:101BE000DFFEFFFF80B584B000AF78607B685B6A82
:101BF000FB60FB685A2200219952FB6852220021A7
:101C00009952FB681800FFF78DFDC046BD4604B031
:101C100080BD80B584B000AF78607B6869229B5C32
:101C2000DBB2212B47D17B6852229B5A9BB2002BFF
:101C300011D17B681B687A681268126880218A4318
:101C40001A607B681B687A681268126840210A4330
:101C50001A60002330E07B689A6880235B019A4217
:101C600014D17B681B69002B10D17B68DB6CFB6097
:101C70007B681B68FA681288D205D20D92B21A8569
:101C80007B68DB6C9A1C7B68DA6409E07B68196806
:101C90007B68DB6C581C7A68D0641B789BB20B8520
:101CA0007B6852229B5A9BB2013B99B27B685222BD
:101CB0009952002300E002231800BD4604B080BD05
:101CC00080B582B000AF78607B681B687A68126864
:101CD000126840218A431A607B6869222021995446
:101CE0007B681800FFF70EFD00231800BD4602B008
:101CF00080BD000080B584B000AF78600E23FB1873
:101D00007A685C21525A1A807B686A229B5CDBB23B
:101D1000222B5AD17B681A680C23FB18928C1A80EC
:101D20007B689A6880235B019A4216D17B681B69A5
:101D3000002B12D17B685B6DBB600C23FB180E225D
:101D4000BA181B88128813409AB2BB681A807B6845
:101D50005B6D9A1C7B685A650FE07B685B6D591C54
:101D60007A6851650C22BA181288D2B20E217918FD
:101D70000988C9B20A40D2B21A707B685A229B5AAB
:101D80009BB2013B9BB27A685A21181C5052002B1F
:101D900019D17B681B687A681268126811490A4079
:101DA0001A607B681B687A681268926801218A430E
:101DB0009A607B686A22202199547B681800FFF79B
:101DC000A9FC00230AE0002308E07B681B687A680E
:101DD0001268926908210A439A6102231800BD46DD
:101DE00004B080BDDFFEFFFF80B500AFFFF7BCF899
:101DF00000F011F800F07CF902F014FD01F0D0FBC6
:101E0000FEF7FCF9FEF75EF9FEF7CEFEFEF780FF67
:101E100002F026FDFEE780B594B000AF2023FB184A
:101E200011221A602023FB1801225A602023FB187C
:101E30000122DA602023FB1801225A612023FB18BB
:101E400010229A612023FB1802221A622023FB1819
:101E5000802252025A622023FB18802252039A6287
:101E60002023FB180022DA622023FB181800FEF75B
:101E70003DFA031E01D000F042F81023FB180722A0
:101E80001A601023FB1802225A601023FB1800224C
:101E90009A601023FB180022DA601023FB1801213E
:101EA0001800FEF717FD031E01D000F028F83B00D4
:101EB00001221A603B0000229A603B00180000F0EB
:101EC00049F8031E01D000F01AF8FEF74DFE02009B
:101ED000FA239900100002F037FD0300180000F00B
:101EE000A1FB042000F0ACFB01235B420022002197
:101EF000180000F071FBC046BD4614B080BD80B52F
:101F000000AFFEE70C488546002103E00B4B5B5811
:101F1000435004310A480B4B42189A42F6D30A4AFE
:101F200002E0002313600432084B9A42F9D301F017
:101F30006BFCFFF759FFFEE7002000201C4B000858
:101F400000000020040000200400002038020020CF
:101F5000FEE7000080B586B000AF786000233B61EB
:101F60000023FB607B681A6880235B02134000D16A
:101F70008EE01723FB1800221A70574BDA69802372
:101F80005B05134011D1544B534AD2698021490556
:101F90000A43DA61504BDA6980235B051340BB606A
:101FA000BB681723FB1801221A704C4B1A68802358
:101FB0005B0013401AD1494B484A126880214900FE
:101FC0000A431A60FFF70CF803003B6108E0FFF7D3
:101FD00007F802003B69D31A642B01D9032376E08A
:101FE0003E4B1A6880235B001340F0D03A4B1A6ACC
:101FF000C0239B001340FB60FB68002B34D07B6840
:102000005A68C0239B001A40FB689A422CD0324B7E
:102010001B6A334A1340FB602F4B2F4A126A802100
:1020200049020A431A622C4B2B4A126A2D490A4074
:102030001A62294BFA681A62FB680122134013D016
:10204000FEF7CEFF03003B6109E0FEF7C9FF020087
:102050003B69D31A244A934201D9032337E01E4B2C
:102060001B6A02221340F0D01B4A1B4B1B6A1C49FF
:1020700019407B685B680B4313621723FB181B78BE
:10208000012B05D1144B144AD26918490A40DA6170
:102090007B681B680122134009D00F4A0E4B1B6B53
:1020A00003218B4319007B689B680B4313637B6898
:1020B0001B682022134009D0074A074B1B6B1021D5
:1020C0008B4319007B68DB680B4313630023180004
:1020D000BD4606B080BDC046001002400070004002
:1020E000FFFCFFFFFFFFFEFF88130000FFFFFFEF75
:1020F00080B588B000AF364B354A52698021C9039C
:102100000A435A61324B5A698023DB031340BB6098
:10211000BB682F4B2E4A5269802189020A435A61BB
:102120002B4B5A6980239B0213407B607B68284BB2
:10213000274A52698021C9020A435A61244B5A69CD
:102140008023DB0213403B603B689023DB050022C9
:102150002021180002F048FBFF231B021D4800222B
:10216000190002F041FB0C23FB1820221A600C23FB
:10217000FB1801225A600C23FB1800229A600C23E2
:10218000FB180022DA600C23FA189023DB051100FB
:10219000180002F0B5F90C23FB18FF2212021A6096
:1021A0000C23FB1801225A600C23FB1800229A60B2
:1021B0000C23FB180022DA600C23FB18054A1900D7
:1021C000100002F09DF9C046BD4608B080BDC04673
:1021D000001002400004004880B584B000AF786071
:1021E0000023FB607B68002B01D1012342E07B6868
:1021F0002122022199547B681B681B68FB60FB68E5
:102200001E4A1340FB607B685A687B689B681A43D0
:102210007B68DB681A437B681B691A437B685B69D0
:102220001A437B689B691A437B68DB691343FA682E
:102230001343FB607B681B68FA681A607B681800B0
:1022400000F006F97B6800229A627B680022DA625D
:102250007B6800221A637B6800225A637B68002235
:102260009A637B682122012199547B6820220021F6
:10227000995400231800BD4604B080BD0FC0FFFF75
:1022800080B584B000AF78600F23FB1800221A706D
:102290007B6821229B5CDBB2022B07D07B68042287
:1022A0009A630F23FB1801221A7028E07B681B68D1
:1022B0007A68126812680E218A431A607B681B686C
:1022C0007A681268126801218A431A607B68DB6BA6
:1022D0007A68126C012191400A005A607B682122C1
:1022E000012199547B682022002199547B685B6B03
:1022F000002B04D07B685B6B7A68100098470F2333
:10230000FB181B781800BD4604B080BD80B584B0B2
:1023100000AF78607B68DB6B1B68FB607B681B68C9
:102320001B68BB607B681B6C04229A401300FA6830
:10233000134024D0BB680422134020D07B681B6864
:102340001B682022134007D17B681B687A681268DB
:10235000126804218A431A607B68DB6B7A68126C0E
:10236000042191400A005A607B68DB6A002B00D18F
:102370006AE07B68DB6A7A681000984764E07B68F3
:102380001B6C02229A401300FA6813402BD0BB68E2
:102390000222134027D07B681B681B682022134051
:1023A0000BD17B681B687A68126812680A218A431D
:1023B0001A607B682122012199547B68DB6B7A6863
:1023C000126C022191400A005A607B682022002191
:1023D00099547B689B6A002B36D07B689B6A7A682D
:1023E0001000984730E07B681B6C08229A4013006D
:1023F000FA68134028D0BB680822134024D07B68B9
:102400001B687A68126812680E218A431A607B681A
:10241000DB6B7A68126C012191400A005A607B687C
:1024200001229A637B682122012199547B68202232
:10243000002199547B681B6B002B05D07B681B6BBC
:102440007A6810009847FFE7C046BD4604B080BDDB
:1024500080B582B000AF78607B681B68084A9446FC
:1024600063441421180002F06FFA03009A007B689D
:102470001A647B68034ADA63C046BD4602B080BD79
:10248000F8FFFDBF0000024080B582B000AF02003F
:10249000FB1D1A70064BFA1D127811001F220A400C
:1024A000012191400A001A60C046BD4602B080BDBD
:1024B00000E100E0B0B582B000AF02003960FB1D62
:1024C0001A70FB1D1B787F2B32D92F4CFB1D1B78FC
:1024D0001A000F231340083B99082B4AFB1D1B7859
:1024E00018000F230340083B9B0806339B00D318BA
:1024F00004331B68FA1D1278100003220240D20038
:10250000FF2090400200D2431A403B689B01FF200D
:102510001840FB1D1B781D0003232B40DB00984057
:1025200003001A438B1D9B00E31804331A6027E055
:10253000164CFB1D1B785BB29B081449FA1D1278E0
:1025400052B29208C03292005258F91D0978080020
:1025500003210140C900FF2088400100C943114008
:102560003A689201FF201040FA1D127815000322EC
:102570002A40D200904002000A43C0339B001A5107
:10258000C046BD4602B0B0BD00ED00E000E100E095
:1025900080B582B000AF78607B68013B0C4A934203
:1025A00001D9012310E00B4B7A68013A5A600123EC
:1025B0005B4203211800FFF77DFF064B00229A6063
:1025C000044B07221A6000231800BD4602B080BDEC
:1025D000FFFFFF0010E000E080B584B000AFB960FD
:1025E0007A600F23FB18021C1A70BA680F23FB18BD
:1025F0001B785BB211001800FFF75CFFC046BD46B8
:1026000004B080BD80B582B000AF0200FB1D1A701F
:10261000FB1D1B785BB21800FFF736FFC046BD46B6
:1026200002B080BD80B582B000AF78607B681800D2
:10263000FFF7AEFF03001800BD4602B080BD0000EA
:1026400080B582B000AF78607B68042B06D1084B60
:10265000074A126804210A431A6005E0044B044A41
:10266000126804218A431A60C046BD4602B080BD8C
:1026700010E000E080B500AF00F003F8C046BD46B2
:1026800080BD80B500AFC046BD4680BD80B584B07A
:1026900000AF78607B68002B01D1012388E07B6864
:1026A00000229A627B685D229B5CDBB2002B07D123
:1026B0007B685C22002199547B681800FDF73CFD83
:1026C0007B685D22022199547B681B687A681268D6
:1026D000126840218A431A607B68DA68E023DB00D5
:1026E0009A4202D90023FB6002E080235B01FB6079
:1026F0007B68DA68F0231B019A4208D07B68DA68AD
:10270000E023DB009A4202D07B6800229A627B6859
:102710001B6B002B0CD17B68DA68E023DB009A424C
:1027200003D97B6802221A6302E07B6801221A63E4
:102730007B681B687A6851687A68926811437A6886
:10274000126911437A68526911437A68906980224C
:102750009200024011437A68D26911437A68126A82
:1027600011437A68926A0A431A607B681B687A6828
:102770009269120C042111407A68526A11437A68F6
:10278000526B11437A68D2681143FA680A435A605F
:102790007B681B687A681268D26907490A40DA6167
:1027A0007B6800221A667B685D2201219954002310
:1027B0001800BD4604B080BDFFF7FFFF80B588B0AC
:1027C00000AF78607B681B685B68FB617B681B6897
:1027D0009B68BB61BB69402213400DD1BB690122DC
:1027E000134009D0FB694022134005D07B68DB6CA5
:1027F0007A6810009847ACE0BB690222134009D008
:10280000FB698022134005D07B681B6D7A6810003D
:1028100098479EE0BA69B0235B00134000D198E06E
:10282000FB692022134000D193E0BB694022134092
:1028300023D07B685D229B5CDBB2032B11D07B68CD
:102840001B6E04221A437B681A6600237B617B6837
:102850001B68DB687B617B681B689B687B617B69AD
:102860000BE000233B617B681B68DB683B617B6896
:102870001B689B683B613B696BE0BB69202213408E
:1028800014D07B681B6E01221A437B681A660023F2
:10289000FB607B681B689B68FB607B681B687A68D1
:1028A0001268126840218A431A60FB68BA69802363
:1028B0005B0013400CD07B681B6E08221A437B68B8
:1028C0001A660023BB607B681B689B68BB60BB68A3
:1028D0007B681B6E002B3BD07B681B687A68126894
:1028E0005268E0218A435A607B685D220121995435
:1028F000FB690222134003D1FB690122134022D05D
:102900007B681B687A681268526803218A435A60A0
:102910007B689B6D002B08D07B689B6D0E4A5A63C9
:102920007B689B6D1800FFF7ABFC7B685B6D002B31
:102930000DD07B685B6D084A5A637B685B6D18003D
:10294000FFF79EFC03E07B68180000F007F8C04624
:10295000C046BD4608B080BD6D29000880B582B074
:1029600000AF7860C046BD4602B080BD80B584B07F
:1029700000AF78607B685B6AFB60FB6846220021E1
:102980009952FB680022DA87FB681800FFF7E6FF20
:10299000C046BD4604B080BD80B582B000AF78604F
:1029A0007B68002B01D1012381E07B6841229B5C85
:1029B000DBB2002B07D17B684022002199547B6851
:1029C0001800FDF753FC7B684122242199547B6851
:1029D0001B687A681268126801218A431A607B6852
:1029E0001B687A68526834490A401A617B681B6820
:1029F0007A681268926831490A409A607B68DB689D
:102A0000012B08D17B681B687A68926880210902D3
:102A10000A439A6007E07B681B687A6892688421A1
:102A200009020A439A607B68DB68022B04D17B6849
:102A30001B68802212015A607B681B687A681268E2
:102A400052681F490A435A607B681B687A6812689B
:102A5000D2681A490A40DA607B681B687A68116993
:102A60007A68526911437A68926912020A43DA60FD
:102A70007B681B687A68D1697A68126A0A431A60AF
:102A80007B681B687A681268126801210A431A6021
:102A90007B6800225A647B684122202199547B681C
:102AA00000221A637B6842220021995400231800F7
:102AB000BD4602B080BDC046FFFFFFF0FF7FFFFFB5
:102AC0000080000280B584B000AF78607B681B682E
:102AD0009B69FB607B681B681B68BB607B685B6BEA
:102AE000002B05D07B685B6BBA68F96878689847FB
:102AF000C046BD4604B080BD80B584B000AF7860EC
:102B00007B681B689B69FB607B681B681B68BB60FC
:102B1000FA6880235B0013400ED0BB68802213400C
:102B20000AD07B685B6C01221A437B685A647B681D
:102B30001B6880225200DA61FA688023DB001340B0
:102B40000ED0BB68802213400AD07B685B6C0822E1
:102B50001A437B685A647B681B688022D200DA6162
:102B6000FA6880239B0013400ED0BB68802213407C
:102B70000AD07B685B6C02221A437B685A647B68CC
:102B80001B6880229200DA617B685B6C0B22134029
:102B900006D07B685A6C7B681100180000F052FB6D
:102BA000C046BD4604B080BD80B582B000AF78603D
:102BB000C046BD4602B080BD80B582B000AF78602F
:102BC000C046BD4602B080BD80B582B000AF78601F
:102BD00008001100FB1C021C1A703B000A1C1A8022
:102BE000C046BD4602B080BD80B582B000AF7860FF
:102BF000C046BD4602B080BD80B582B000AF7860EF
:102C0000C046BD4602B080BD80B582B000AF7860DE
:102C1000C046BD4602B080BD80B584B000AFF8604C
:102C2000B9607A60FB6840229B5C012B01D10223D2
:102C3000DBE0FB68402201219954BB68102213405D
:102C40004AD07B681022134046D0FB685B8D9BB254
:102C5000002B35D1FB68DA6A80239B049A4205D0A9
:102C6000FB68DA6A80239B049A420CD1FB684122FC
:102C70009B5CDBB2282B06D1BA68FB6811001800F8
:102C800000F08EFA27E0FB68DB6A5A4A934212D0C2
:102C9000FB6841229B5CDBB2292B0CD1FB681B68D3
:102CA0001022DA61FB68180000F094FBFB68180042
:102CB00000F058F90FE0FB681B681022DA6181E030
:102CC000FB681B681022DA61FB685B6C04221A4304
:102CD000FB685A6476E075E0BB68042213402ED08E
:102CE0007B68042213402AD0FB685B8D9BB2002BCB
:102CF00016D0FB685B6A591CFA685162FA68126860
:102D0000526AD2B21A70FB681B8D013B9AB2FB6803
:102D10001A85FB685B8D9BB2013B9AB2FB685A85B2
:102D2000FB685B8D9BB2002B4BD1FB68DB6A314AA1
:102D3000934246D0FB68180000F014F941E0BB68EC
:102D4000082213400AD07B680822134006D0BA68D4
:102D5000FB681100180000F04FF833E0BB68022256
:102D600013402FD07B68022213402BD0FB685B8D71
:102D70009BB2002B16D0FB681B68FA68526A501C85
:102D8000F968486212789A62FB685B8D9BB2013BDE
:102D90009AB2FB685A85FB681B8D013B9AB2FB68AF
:102DA0001A850FE0FB68DA6A80235B049A4203D03D
:102DB000FB68DB6A002B05D1FB68180000F0D2F835
:102DC00000E0C046BB682022134009D07B68202267
:102DD000134005D0BA68FB681100180000F004F930
:102DE000FB6840220021995400231800BD4604B01E
:102DF00080BDC0460000FFFF80B584B000AF7860A2
:102E000039600F23FB1800221A700C23FB180022D4
:102E10001A800A23FB1800221A800823FB180022BC
:102E20001A807B6841229B5CDBB21A002823134086
:102E3000282B00D08AE07B681B689B691B0CDAB2E8
:102E40000F23FB1801210A401A707B681B689B69DD
:102E50001B0C9AB20C23FB18FE210A401A807B68D7
:102E60001B689B689AB20A23FB189205920D1A8080
:102E70007B681B68DB689AB20823FB18FE210A40B6
:102E80001A807B68DB68022B4CD10A23FB181B8855
:102E9000DB099AB20C23FB181B8853409BB21A0023
:102EA0000623134024D10C23FB180A22BA181288D7
:102EB0001A807B689B6C5A1C7B689A647B689B6C4D
:102EC000022B4BD17B6800229A647B681B68082226
:102ED000DA617B684022002199540C23FB181A8880
:102EE0000F23FB1819787B681800FFF76DFE35E09B
:102EF0000C23FB180822BA1812881A807B68042158
:102F0000180000F0B8FA7B684022002199540C2385
:102F1000FB181A880F23FB1819787B681800FFF735
:102F200053FE1BE07B680421180000F0A4FA7B68C4
:102F30004022002199540C23FB181A880F23FB18F8
:102F400019787B681800FFF73FFE07E07B681B6875
:102F50000822DA617B68402200219954C046BD46B0
:102F600004B080BD80B582B000AF78607B6842223B
:102F7000002199547B6841229B5CDBB2292B14D140
:102F80007B684122282199547B6821221A637B683F
:102F90000121180000F06FFA7B684022002199544B
:102FA0007B681800FFF700FE19E07B6841229B5CFC
:102FB000DBB22A2B13D17B684122282199547B68EC
:102FC00022221A637B680221180000F054FA7B6801
:102FD0004022002199547B681800FFF7EDFDC046A0
:102FE000BD4602B080BD000080B582B000AF786001
:102FF00039607B681B682022DA617B681B680822C5
:10300000DA617B680721180000F035FA7B681B68DD
:103010007A6812685268802109020A435A607B6804
:103020001B687A68126852685B490A405A607B687C
:10303000180000F0CFF97B681B681A688023DB0159
:103040001A408023DB019A4209D07B681B681A680A
:1030500080231B021A4080231B029A4212D17B68F4
:1030600041229B5CDBB2212B05D17B689B6B1B68EB
:103070005B689BB204E07B68DB6B1B685B689BB2A0
:103080007A6853857B685B8D9BB2002B05D07B688B
:103090005B6C04221A437B685A643B680422134029
:1030A00020D07B685B6A591C7A6851627A68126822
:1030B000526AD2B21A707B681B8D002B12D07B68CB
:1030C0001B8D013B9AB27B681A857B685B8D9BB236
:1030D000013B9AB27B685A857B685B6C04221A4379
:1030E0007B685A647B6800221A637B684222002155
:1030F00099547B6800225A637B685B6C002B13D069
:103100007B685A6C7B681100180000F09BF87B68A4
:1031100041229B5CDBB2282B3AD13A687B681100D4
:10312000180000F03DF833E07B68DB6A1B4A9342ED
:103130000FD07B68194ADA627B68412220219954BA
:103140007B684022002199547B681800FFF74CFDF2
:103150001EE07B6841229B5CDBB2222B0CD17B689A
:103160004122202199547B684022002199547B6898
:103170001800FFF721FD0BE07B68412220219954C4
:103180007B684022002199547B681800FFF70CFDF2
:10319000C046BD4602B080BD00E800FE0000FFFF53
:1031A00080B582B000AF786039607B68244ADA620B
:1031B0007B6800221A637B684122202199547B6836
:1031C0004222002199547B6800225A633B68042202
:1031D000134020D07B685B6A591C7A6851627A6818
:1031E0001268526AD2B21A707B681B8D002B12D003
:1031F0007B681B8D013B9AB27B681A857B685B8D6F
:103200009BB2013B9AB27B685A857B685B6C042257
:103210001A437B685A647B680721180000F02BF979
:103220007B681B681022DA617B6840220021995478
:103230007B681800FFF7D8FCC046BD4602B080BDD1
:103240000000FFFF80B582B000AF786039607B6816
:103250004222002199547B68594ADA627B68002235
:103260005A857B685A6C3B681A437B685A647B6852
:1032700041229B5CDBB2282B0BD07B6841229B5CFC
:10328000DBB2292B05D07B6841229B5CDBB22A2B69
:103290000FD17B680321180000F0EDF87B68412214
:1032A000282199547B6800221A637B68454A5A6337
:1032B00014E07B680721180000F0DDF87B684122EC
:1032C0009B5CDBB2602B03D07B68412220219954A8
:1032D0007B6800221A637B6800225A637B681B6844
:1032E0001A688023DB011A408023DB019A421ED139
:1032F0007B681B687A681268126833490A401A6052
:103300007B689B6B314A5A637B6840220021995449
:103310007B689B6B1800FEF7B3FF031E4BD07B68E6
:103320009B6B5A6B7B689B6B1800904743E07B68F4
:103330001B681A6880231B021A4080231B029A42D2
:103340001ED17B681B687A681268126820490A409F
:103350001A607B68DB6B1D4A5A637B684022002140
:1033600099547B68DB6B1800FEF78AFF031E22D09E
:103370007B68DB6B5A6B7B68DB6B180090471AE04D
:103380007B6841229B5CDBB2602B0CD17B684122C5
:10339000202199547B684022002199547B681800B1
:1033A000FFF732FC07E07B684022002199547B68DC
:1033B0001800FFF721FCC046BD4602B080BDC046E4
:1033C0000000FFFF192C0008FFBFFFFF19340008A1
:1033D000FF7FFFFF80B582B000AF78607B681B681D
:1033E0009B6902221340022B03D17B681B680022D9
:1033F0009A627B681B689B6901221340012B07D0EE
:103400007B681B687A681268926901210A439A6195
:10341000C046BD4602B080BD80B584B000AF7860C4
:103420007B685B6AFB60FB681B68FA68126852681D
:10343000802109020A435A60FB689B6B00225A6391
:10344000FB68DB6B00225A63FB6841229B5CDBB2AA
:10345000602B08D1FB68412220219954FB68180099
:10346000FFF7D2FB03E0FB681800FFF7C5FBC0467F
:10347000BD4604B080BD80B584B000AF78600A005E
:10348000BB1C1A800023FB60BB1C1B88012213405D
:1034900010D0FB6842221343FB607B6841229B5C97
:1034A000DBB21A0028231340282B03D0FB68B0227C
:1034B0001343FB60BB1C1B880222134010D0FB6827
:1034C00044221343FB607B6841229B5CDBB21A0001
:1034D00028231340282B03D0FB68B0221343FB6042
:1034E000BB1C1B880422134003D0FB68B822134383
:1034F000FB60BB1C1B8811221340112B03D1FB68FE
:1035000090221343FB60BB1C1B8812221340122B1A
:1035100003D1FB6820221343FB60BB1C1B881222D3
:103520001340122B03D1FB6840221343FB607B68DE
:103530001B687A6812681268F968C9430A401A6001
:1035400000231800BD4604B080BD000080B582B0E5
:1035500000AF124B114A926901210A439A610F4B45
:103560009B69012213407B607B6805235B4200223C
:1035700000211800FFF730F802235B4200220021EF
:103580001800FFF729F801235B42002200211800F0
:10359000FFF722F8C046BD4602B080BD00100240D1
:1035A00080B584B000AF404B404A1A603E4B0022C9
:1035B0005A603D4B00229A603B4B0022DA603A4B46
:1035C00001221A61384B08225A61374B00229A6156
:1035D000354B0022DA61344B01221A62324B002251
:1035E0005A62314BC222FF329A622F4B0022DA62BA
:1035F0002D4B01221A632C4B01225A632A4B1800CF
:10360000FDF7F8FC031E01D0FEF779FC3B1D0022FC
:103610001A603B1D802252015A603B1D80225205D8
:103620009A603A1D204B11001800FDF721FE031E81
:1036300001D0FEF764FC3B1D01221A603A1D1A4BB3
:1036400011001800FDF714FE031E01D0FEF757FC11
:103650003B1D02221A603A1D134B11001800FDF7A2
:1036600007FE031E01D0FEF74AFC3B1D03221A6031
:103670003A1D0D4B11001800FDF7FAFD031E01D095
:10368000FEF73DFC3B1D04221A603A1D064B11005B
:103690001800FDF7EDFD031E01D0FEF730FCC0461B
:1036A000BD4604B080BDC0467C010020002401401E
:1036B00080B588B000AF78607B681B68284A934269
:1036C00049D1284B274A9269802189000A439A618F
:1036D000244B9A6980239B001340BB60BB680C237A
:1036E000FB181F221A600C23FB1803225A600C23BC
:1036F000FB1800229A600C23FA189023DB051100B6
:10370000180000F0FDFE184B184A1A60164B0022F4
:103710005A60154B00229A60134B8022DA60124BDC
:10372000802252001A61104B8022D2005A610E4B47
:1037300000229A610C4B0022DA610B4B1800FEF755
:103740004BFD031E01D0FEF7DAFB7B68064ADA6305
:10375000054B7A685A62C046BD4608B080BDC04677
:1037600000240140001002403801002008000240FF
:1037700080B582B000AF786039607B6841229B5C85
:10378000DBB2202B38D17B6840229B5C012B01D11E
:10379000022332E07B684022012199547B68412258
:1037A000242199547B681B687A6812681268012189
:1037B0008A431A607B681B687A681268126811492C
:1037C0000A401A607B681B687A68126811683A6858
:1037D0000A431A607B681B687A68126812680121C4
:1037E0000A431A607B684122202199547B68402259
:1037F00000219954002300E002231800BD4602B0C6
:1038000080BDC046FFEFFFFF80B500AF1A4B1A4ADC
:10381000126801210A431A60174B174A5268174968
:103820000A405A60144B144A126815490A401A603B
:10383000114B114A126813490A401A600E4B0E4A86
:10384000526811490A405A600B4B0B4AD26A0F2149
:103850008A43DA62084B084A126B0C490A401A6321
:10386000054B054A526B01218A435A63024B0022E1
:103870009A60C046BD4680BD001002400CB8FF08EB
:10388000FFFFF6FEFFFFFBFFFFFFC0FFECFEFFFFA9
:1038900080B500AFC046BD4680BD80B500AFFEE735
:1038A00080B500AFC046BD4680BD80B500AFC04604
:1038B000BD4680BD80B500AFFDF786FBFEF7DAFEA2
:1038C000C046BD4680BD000080B500AF034B180068
:1038D000FEF71CFDC046BD4680BDC0463801002035
:1038E00080B500AF094B1B689A69E023DB001340E9
:1038F00004D0064B1800FFF7FFF803E0034B180055
:10390000FFF7E0F8C046BD4680BDC0466800002015
:1039100080B500AF034B1800FEF750FFC046BD4610
:1039200080BDC0460400002080B500AF034B1800E6
:10393000FDF7EEFDC046BD4680BDC046C801002073
:1039400080B582B000AF786039607B683C229B5CB8
:10395000012B01D1022332E07B683C2201219954E2
:103960007B683D22022199547B681B687A68126843
:10397000526870218A435A607B681B687A681268B3
:1039800051683A6812680A435A607B681B687A6813
:103990001268926880218A439A607B681B687A6803
:1039A000126891683A6852680A439A607B683D22BF
:1039B000012199547B683C2200219954002318006E
:1039C000BD4602B080BD000080B584B000AF786015
:1039D00039600023FB607B683C229B5C012B01D19A
:1039E00002234DE07B683C22012199547B683D22F3
:1039F00002219954FB68FF2293431A003B68DB685D
:103A00001343FB60FB68204A1A403B689B681343E2
:103A1000FB60FB681D4A1A403B685B681343FB6010
:103A2000FB681B4A1A403B681B681343FB60FB683A
:103A3000184A1A403B681B691343FB60FB68164A2F
:103A40001A403B685B691343FB60FB68134A1A40EA
:103A50003B689B691343FB60FB68114A1A403B6853
:103A60009B691343FB607B681B68FA685A647B6838
:103A70003D22012199547B683C2200219954002366
:103A80001800BD4604B080BDFFFCFFFFFFFBFFFF39
:103A9000FFF7FFFFFFEFFFFFFFDFFFFFFFBFFFFFAE
:103AA000FF7FFFFF80B582B000AF78607B68002B9E
:103AB00001D101231EE07B683D229B5CDBB2002B21
:103AC00007D17B683C22002199547B681800FDF7E0
:103AD000A9F97B683D22022199547B681A687B68AA
:103AE00004331900100000F0D5F97B683D22012154
:103AF000995400231800BD4602B080BD80B582B045
:103B000000AF78607B68002B01D101231EE07B6849
:103B10003D229B5CDBB2002B07D17B683C2200215D
:103B200099547B68180000F015F87B683D2202214B
:103B300099547B681A687B6804331900100000F000
:103B4000A9F97B683D220121995400231800BD4644
:103B500002B080BD80B582B000AF7860C046BD467F
:103B600002B080BD80B584B000AFF860B9607A6003
:103B7000FB683C229B5C012B01D10223A4E0FB6883
:103B80003C2201219954FB683D22022199547B6813
:103B9000042B29D002D8002B05D08CE0082B46D06E
:103BA0000C2B65D087E0FB681B68BA681100180011
:103BB00000F0E8F9FB681B68FA681268926908214E
:103BC0000A439A61FB681B68FA68126892690421CB
:103BD0008A439A61FB681B68FA6812689169BA683F
:103BE00012690A439A6166E0FB681B68BA681100B3
:103BF000180000F055FAFB681B68FA6812689269B1
:103C0000802109010A439A61FB681B68FA681268FF
:103C100092692F490A409A61FB681B68FA6812682A
:103C20009169BA68126912020A439A6143E0FB681B
:103C30001B68BA681100180000F0BCFAFB681B682A
:103C4000FA681268D26908210A43DA61FB681B68C6
:103C5000FA681268D26904218A43DA61FB681B683A
:103C6000FA681268D169BA6812690A43DA6122E017
:103C7000FB681B68BA681100180000F027FBFB689E
:103C80001B68FA681268D269802109010A43DA6167
:103C9000FB681B68FA681268D2690D490A40DA614C
:103CA000FB681B68FA681268D169BA681269120267
:103CB0000A43DA61C046FB683D2201219954FB6842
:103CC0003C220021995400231800BD4604B080BD59
:103CD000FFFBFFFF80B584B000AF78603960002340
:103CE000FB607B683C229B5C012B01D10223CAE074
:103CF0007B683C22012199547B683D220221995422
:103D00007B681B689B68FB60FB6877229343FB60C2
:103D1000FB685F4A1340FB607B681B68FA689A6027
:103D20003B681B68402B00D178E00ED8102B00D1E7
:103D30008BE003D8002B00D180E09BE0202B00D14A
:103D40008AE0302B00D18EE094E0702B17D004D89D
:103D5000502B43D0602B51D08CE0802252019342F3
:103D600004D080229201934224D083E07B681B68B8
:103D70007A681268926807218A439A607AE07B68C1
:103D800018683B6899683B685A683B68DB6800F0D4
:103D900095FB7B681B689B68FB60FB6877229343FD
:103DA000FB60FB6877221343FB607B681B68FA6843
:103DB0009A605FE07B6818683B6899683B685A685E
:103DC0003B68DB6800F07AFB7B681B687A681268E6
:103DD00092688021C9010A439A604BE07B681868A9
:103DE0003B6859683B68DB681A0000F0DFFA7B68C3
:103DF0001B685021180000F041FB3BE07B6818680D
:103E00003B6859683B68DB681A0000F001FB7B687F
:103E10001B686021180000F031FB2BE07B681868FC
:103E20003B6859683B68DB681A0000F0BFFA7B68A2
:103E30001B684021180000F021FB1BE07B681B6819
:103E40000021180000F01AFB14E07B681B681021A9
:103E5000180000F013FB0DE07B681B6820211800A0
:103E600000F00CFB06E07B681B683021180000F0B6
:103E700005FBC0467B683D22012199547B683C22AA
:103E80000021995400231800BD4604B080BDC046EF
:103E9000FF00FFFF80B584B000AF78603960002379
:103EA000FB607B681B68FB607B682F4A934203D0F2
:103EB0007B682E4A934208D1FB6870229343FB60D3
:103EC0003B685B68FA681343FB607B68264A934251
:103ED00013D07B68254A93420FD07B68244A9342D3
:103EE0000BD07B68234A934207D07B68224A9342D7
:103EF00003D07B68214A934208D1FB68204A1340D3
:103F0000FB603B68DB68FA681343FB60FB68802258
:103F100093431A003B685B691343FB607B68FA6854
:103F20001A603B689A687B68DA623B681A687B684B
:103F30009A627B680C4A93420BD07B680D4A93428D
:103F400007D07B680C4A934203D07B680B4A9342AC
:103F500003D13B681A697B681A637B6801225A6146
:103F6000C046BD4604B080BD002C014000040040A6
:103F70000020004000400140004401400048014052
:103F8000FFFCFFFF80B586B000AF7860396000238A
:103F9000FB6000237B6100233B617B681B6A01227D
:103FA00093431A007B681A627B681B6A7B617B689B
:103FB0005B683B617B689B69FB60FB687022934395
:103FC000FB60FB6803229343FB603B681B68FA6855
:103FD0001343FB607B69022293437B613B689B68D0
:103FE0007A6913437B617B68274A93420BD07B68D5
:103FF000264A934207D07B68254A934203D07B68C8
:10400000244A93420CD17B69082293437B613B682D
:10401000DB687A6913437B617B69042293437B618C
:104020007B68194A93420BD07B68184A934207D0A9
:104030007B68174A934203D07B68164A934211D19A
:104040003B69154A13403B613B69144A13403B618D
:104050003B685B693A6913433B613B689B693A691A
:1040600013433B617B683A695A607B68FA689A61DE
:104070003B685A687B685A637B687A691A62C046F3
:10408000BD4606B080BDC046002C01400040014046
:104090000044014000480140FFFEFFFFFFFDFFFF1D
:1040A00080B586B000AF786039600023FB600023E4
:1040B0007B6100233B617B681B6A102293431A00DB
:1040C0007B681A627B681B6A7B617B685B683B610B
:1040D0007B689B69FB60FB682E4A1340FB60FB68B2
:1040E0002D4A1340FB603B681B681B02FA681343B0
:1040F000FB607B69202293437B613B689B681B01CB
:104100007A6913437B617B68244A93420DD17B69B2
:10411000802293437B613B68DB681B017A69134310
:104120007B617B69402293437B617B681B4A93429E
:104130000BD07B681A4A934207D07B68194A934296
:1041400003D07B68184A934213D13B69174A134046
:104150003B613B69164A13403B613B685B699B00CE
:104160003A6913433B613B689B699B003A6913437F
:104170003B617B683A695A607B68FA689A613B6880
:104180005A687B689A637B687A691A62C046BD4642
:1041900006B080BDFF8FFFFFFFFCFFFF002C01403A
:1041A000004001400044014000480140FFFBFFFF88
:1041B000FFF7FFFF80B586B000AF7860396000235D
:1041C000FB6000237B6100233B617B681B6A354AEF
:1041D0001A407B681A627B681B6A7B617B685B683C
:1041E0003B617B68DB69FB60FB6870229343FB608B
:1041F000FB6803229343FB603B681B68FA68134328
:10420000FB607B69284A13407B613B689B681B020B
:104210007A6913437B617B68244A93420DD17B69A1
:10422000234A13407B613B68DB681B027A691343B6
:104230007B617B691F4A13407B617B681B4A934209
:104240000BD07B681C4A934207D07B681B4A934281
:1042500003D07B681A4A934213D13B69194A134031
:104260003B613B69184A13403B613B685B691B013A
:104270003A6913433B613B689B691B013A691343ED
:104280003B617B683A695A607B68FA68DA613B682F
:104290005A687B68DA637B687A691A62C046BD46F1
:1042A00006B080BDFFFEFFFFFFFDFFFF002C0140B9
:1042B000FFF7FFFFFFFBFFFF00400140004401400C
:1042C00000480140FFEFFFFFFFDFFFFF80B586B032
:1042D00000AF7860396000233B610023FB6000235E
:1042E0007B617B681B6A284A1A407B681A627B687C
:1042F0001B6AFB607B685B687B617B68DB693B6199
:104300003B69224A13403B613B69214A13403B61B0
:104310003B681B681B023A6913433B61FB681D4AFB
:104320001340FB603B689B681B03FA681343FB6008
:104330007B68194A93420BD07B68184A934207D096
:104340007B68174A934203D07B68164A934209D18F
:104350007B69154A13407B613B685B699B017A6905
:1043600013437B617B687A695A607B683A69DA61DA
:104370003B685A687B681A647B68FA681A62C046B0
:10438000BD4606B080BDC046FFEFFFFFFF8FFFFFB9
:10439000FFFCFFFFFFDFFFFF002C0140004001405A
:1043A0000044014000480140FFBFFFFF80B586B0D8
:1043B00000AFF860B9607A6000237B6100233B6145
:1043C000FB681B6A3B61FB681B6A012293431A006E
:1043D000FB681A62FB689B697B617B69F0229343EF
:1043E0007B617B681B017A6913437B613B690A220D
:1043F00093433B613A69BB6813433B61FB687A694D
:104400009A61FB683A691A62C046BD4606B080BD33
:1044100080B586B000AFF860B9607A6000237B6138
:1044200000233B61FB681B6A102293431A00FB6860
:104430001A62FB689B697B61FB681B6A3B617B6955
:104440000D4A13407B617B681B037A6913437B61D0
:104450003B69A02293433B61BB681B013A6913434C
:104460003B61FB687A699A61FB683A691A62C046E7
:10447000BD4606B080BDC046FF0FFFFF80B584B0CB
:1044800000AF78600A00BB1C1A800023FB607B68C9
:104490009B68FB60FB6870229343FB60BB1C1B881E
:1044A000072213439BB21A00FB681343FB607B682F
:1044B000FA689A60C046BD4604B080BD80B586B03B
:1044C00000AFF860B9607A603B6000237B61FB68F5
:1044D0009B687B617B69094A13407B613B681A02D8
:1044E0007B681A43BB6813437A6913437B61FB689B
:1044F0007A699A60C046BD4606B080BDFF00FFFFE6
:1045000080B586B000AF7860396000237B610023FE
:10451000FB6000233B614FE13B681B6801217A6926
:1045200091400A001340FB60FB68002B00D140E182
:104530003B685B68022B03D03B685B68122B23D17E
:104540007B69DA087B6808329200D3583B617B694B
:10455000072213409B000F229A401300DA433B6965
:1045600013403B613B681A697B6907210B409B0044
:104570009A4013003A6913433B617B69DA087B6810
:10458000083292003969D1507B681B683B617B69B6
:104590005B0003229A401300DA433B6913403B61FE
:1045A0003B685B6803221A407B695B009A401300FA
:1045B0003A6913433B617B683A691A603B685B6800
:1045C000012B0BD03B685B68022B07D03B685B6814
:1045D000112B03D03B685B68122B30D17B689B6842
:1045E0003B617B695B0003229A401300DA433B691D
:1045F00013403B613B68DA687B695B009A401300BB
:104600003A6913433B617B683A699A607B685B68EF
:104610003B6101227B699A401300DA433B691340F6
:104620003B613B685B681B0901221A407B699A4029
:1046300013003A6913433B617B683A695A607B68AF
:10464000DB683B617B695B0003229A401300DA431D
:104650003B6913403B613B689A687B695B009A4009
:1046600013003A6913433B617B683A69DA603B683F
:104670005A6880235B05134000D19AE0544B544A9A
:10468000926901210A439A61514B9B6901221340AF
:10469000BB60BB684F4A7B699B0802339B009B58F9
:1046A0003B617B69032213409B000F229A40130059
:1046B000DA433B6913403B617A689023DB059A42F9
:1046C00013D07B68444A93420DD07B68434A93429F
:1046D00007D07B68424A934201D1032306E00523B9
:1046E00004E0022302E0012300E000237A690321B1
:1046F0000A40920093403A6913433B6135497B6914
:104700009B0802339B003A695A50364B1B683B6149
:10471000FB68DA433B6913403B613B685A6880237E
:104720005B02134003D03A69FB6813433B612D4B96
:104730003A691A602B4B5B683B61FB68DA433B6963
:1047400013403B613B685A6880239B02134003D0AF
:104750003A69FB6813433B61224B3A695A60214B2B
:104760009B683B61FB68DA433B6913403B613B68F4
:104770005A6880235B03134003D03A69FB681343F4
:104780003B61184B3A699A60164BDB683B61FB68EA
:10479000DA433B6913403B613B685A6880239B03C3
:1047A000134003D03A69FB6813433B610D4B3A69F0
:1047B000DA607B6901337B613B681A687B69DA40A8
:1047C000131E00D0A8E6C046BD4606B080BDC04658
:1047D00000100240000001400004004800080048AA
:1047E000000C00480004014080B582B000AF786042
:1047F00008001100BB1C021C1A807B1C0A1C1A70CA
:104800007B1C1B78002B04D0BB1C1A887B689A6128
:1048100003E0BB1C1A887B689A62C046BD4602B0A2
:1048200080BD000080B582B000AF0C4B0B4A5269CE
:1048300001210A435A61094B5B69012213407B60E5
:104840007B68002202210920FDF7C6FE0920FDF742
:10485000D9FEC046BD4602B080BDC0460010024031
:1048600080B500AF144B154A1A60134BE122520277
:104870005A60114B00229A600F4B0022DA600E4BF7
:1048800000221A610C4B0C225A610B4B00229A61D8
:10489000094B0022DA61084B00221A62064B002203
:1048A0005A62054B1800FCF7DBFD031E01D0FDF733
:1048B00026FBC046BD4680BDC8010020003801402F
:1048C00080B588B000AF78607B681B681B4A934254
:1048D00030D11B4B1A4A92698021C9010A439A615F
:1048E000174B9A698023DB011340BB60BB680C2324
:1048F000FB18C0221A600C23FB1802225A600C23FA
:10490000FB1801229A600C23FB180322DA600C23A7
:10491000FB1800221A610C23FB180A4A1900100028
:10492000FFF7EEFD002200211B20FDF755FE1B20A6
:10493000FDF768FEC046BD4608B080BD00380140A6
:104940000010024000040048002243088B4274D348
:1049500003098B425FD3030A8B4244D3030B8B4280
:1049600028D3030C8B420DD3FF22090212BA030C89
:104970008B4202D31212090265D0030B8B4219D36A
:1049800000E0090AC30B8B4201D3CB03C01A52418A
:10499000830B8B4201D38B03C01A5241430B8B42D2
:1049A00001D34B03C01A5241030B8B4201D30B03BB
:1049B000C01A5241C30A8B4201D3CB02C01A5241E2
:1049C000830A8B4201D38B02C01A5241430A8B42A5
:1049D00001D34B02C01A5241030A8B4201D30B028E
:1049E000C01A5241CDD2C3098B4201D3CB01C01AA8
:1049F000524183098B4201D38B01C01A52414309B2
:104A00008B4201D34B01C01A524103098B4201D39F
:104A10000B01C01A5241C3088B4201D3CB00C01A0C
:104A2000524183088B4201D38B00C01A5241430884
:104A30008B4201D34B00C01A5241411A00D20146A9
:104A4000524110467047FFE701B5002000F006F81C
:104A500002BDC0460029F7D076E770477047C046D0
:104A6000F0B505000F2A2FD90B0003439B0734D163
:104A700016000C000300103E350901352D014519C3
:104A800027681F6067685F60A7689F60E7681034E9
:104A9000DF6010339D42F3D10F239E4310368519FA
:104AA00089191340032B1AD91E1F0023B40801349F
:104AB000A400CF58EF500433A342FAD10324A643F5
:104AC000331D2240C918ED18002A05D00023CC5C04
:104AD000EC5401339342FAD1F0BD0500F6E71A0019
:104AE000F2E7C04602030405060708090A0B0C0D8D
:104AF0000E0F10100102030405060708090A0B0C2B
:104B00000D0E0F1000000000000000000102030461
:0C4B100006070809000000000102030471
:044B1C0000127A0009
:0400000508000000EF
:00000001FF
